:020000040800F2
:1000000020070020910100084B130008E1120008AE
:10001000491300081B0500080F1600080000000027
:100020000000000000000000000000004F13000866
:100030001D050008000000004D13000851130008C2
:10004000AB010008AB010008AB010008AB010008E0
:10005000AB010008AB010008AB010008AB010008D0
:10006000AB010008AB010008AB010008AB010008C0
:10007000AB010008AB010008AB010008AB010008B0
:10008000AB010008AB010008AB010008AB010008A0
:10009000AB010008AB010008AB0100081F05000818
:1000A000AB010008AB010008AB010008AB01000880
:1000B000A9130008AB010008AB010008AB01000860
:1000C000AB010008AB010008AB010008AB01000860
:1000D000AB010008AB010008AB010008AB01000850
:1000E000AB010008AB010008AB01000800F002F80A
:1000F00000F03FF80AA090E8000C82448344AAF183
:100100000107DA4501D100F034F8AFF2090EBAE880
:100110000F0013F0010F18BFFB1A43F0010318473B
:10012000D8150000F8150000103A24BF78C878C12F
:10013000FAD8520724BF30C830C144BF04680C60ED
:10014000704700000023002400250026103A28BF35
:1001500078C1FBD8520728BF30C148BF0B60704739
:10016000752900F04980002070471FB51FBD10B5EC
:1001700010BD00F098F91146FFF7F7FF01F058FAAB
:1001800000F0B6F903B4FFF7F2FF03BC00F0BEF9CC
:100190000948804709480047FEE7FEE7FEE7FEE71B
:1001A000FEE7FEE7FEE7FEE7FEE7FEE70448054957
:1001B000054A064B70470000A5130008ED00000833
:1001C0002001002020070020200300202003002021
:1001D0000FB41CB5074B06AA7B44694600900598EE
:1001E00000F049F90020694600F058F91CBC5DF8A0
:1001F00014FB0000C10200002DE9F0410646002476
:1002000010687529314616A510D0AFF3008000287C
:1002100002DA404213A507E031688A0701D512A52A
:1002200002E0490704D511A5012401E0AFF30080E5
:1002300000210A2206F1240709E0B0FBF2FCB0FB22
:10024000F2F302FB1C00303078541846491C002899
:10025000F3D123462A463046BDE8F04100F0ADB860
:10026000000000002D0000002B0000002000000016
:100270002DE9F0410F460546002028622846E9682E
:10028000884770B3252805D0D5E901219047286A11
:10029000401CF2E7E9682846002688476C28044697
:1002A0000AD0682C08D04C2C35D06A2C31D0742C54
:1002B00031D07A2C2FD016E0E968064628468847C8
:1002C000B042044608D16C2E23D04FF480662846F5
:1002D000E9688847044606E06C2E03D04FF4807628
:1002E00001E01EE04026E4B1A4F14100192802D843
:1002F000203446F400663A46214628462E60FFF731
:100300002FFF60B1012808D0FF1D27F0070708372D
:10031000B4E78026DBE70026D9E73F1DAEE720469D
:10032000B2E7286ABDE8F08110B5431C02E010F87E
:10033000011B71B18107FAD14FF0013202C88C1A4A
:100340008C4314EAC211F9D0C01A0A0603D0C01EA9
:1003500010BDC01A10BD0A0401D0801E10BD0902D4
:10036000FCD0401E10BD4FF0000200B5134694466D
:100370009646203922BFA0E80C50A0E80C50B1F1FD
:100380002001BFF4F7AF090728BFA0E80C5048BF11
:100390000CC05DF804EB890028BF40F8042B08BFAF
:1003A000704748BF20F8022B11F0804F18BF00F8AB
:1003B000012B70477047704770472DE9F0470D4695
:1003C00099469246044600F124080168880604D53F
:1003D000E06921F01001216000E00120A84201DD68
:1003E000471B00E00027A1697A1902EB0900081AEF
:1003F000A0612078C00602D42046AFF3008000261A
:1004000008E0D4E901211AF806009047206A401C50
:10041000761C20624E45F4DB2078C0060AD52046C3
:10042000AFF3008006E0D4E9012130209047206A34
:10043000401C2062381EA7F10107F4DC07E0D4E974
:10044000012118F805009047206A401C2062281EF0
:10045000A5F10105F3DC2046AFF30080207800060B
:1004600002D50220BDE8F0870120FBE701694A1CA4
:1004700002610878704700B58FB0CDE901310021E5
:10048000059105497944CDE9031011466846FFF707
:10049000EFFE0FB000BD0000E5FFFFFF0A6802F8A5
:1004A000010B0A607047754600F02CF8AE46050057
:1004B0006946534620F00700854618B020B5FFF77F
:1004C00075FEBDE820404FF000064FF000074FF0EA
:1004D00000084FF0000B21F00701AC46ACE8C00962
:1004E000ACE8C009ACE8C009ACE8C0098D4670476B
:1004F00010B50446AFF300802046BDE81040FFF77A
:1005000041BE000000487047BC000020014918208F
:10051000ABBEFEE7260002007047FEE770474FF4CF
:10052000007000F001B87047044910B50A68024233
:1005300002D00860FFF7F7FF10BD0000140401406F
:100540002DE9F84FDFF8B8910024A9F1040B2346F8
:100550000F2709F1040AABF1040EC9E00125A540FB
:100560002A40AA427DD1674ED1F804C0ACEB060800
:10057000B44532D014DCBCF1030F3AD009DCBCF135
:10058000000F2AD0BCF1010F1CD0BCF1020F31D1F9
:100590001DE0BCF1110F17D0BCF1120F2AD119E0E8
:1005A000B8F5881F19D006DCB8F5803F15D0B8F52E
:1005B000801F1FD111E0B8F5001F0ED0B8F5041F41
:1005C00018D10AE0CB6815E0CB681B1D12E0CB68A0
:1005D00008330FE0CB680C330CE08B682BB1012B98
:1005E0004FF0080303D0456104E0042302E00561F5
:1005F00000E00023FF2A01D8064601E000F10406CE
:100600004FEA840501D9A5F12005D6F8008007FA44
:1006100005FC28EA0C0803FA05F548EA0508C6F8BF
:1006200000804D68ED0062D5374DAE6946F0010699
:10063000AE61AD6924F0030605F001050095334D68
:1006400006EB050CDCF80850A607360F07FA06F88B
:1006500025EA0805DFF8B880404503D14FF00008CF
:1006600017E044E0DFF8AC80404502D14FF00108CC
:100670000FE0DFF8A480404502D14FF0020808E007
:10068000DFF89880404502D14FF0030801E04FF0B9
:10069000040808FA06F848EA0508CCF808804D680E
:1006A000D9F80060ED024D4601D5164300E09643AF
:1006B0002E604D68DAF80060AD02554601D516434C
:1006C00000E096432E604D68DBF80060AD035D46A8
:1006D00001D5164300E096432E604D68DEF80060B9
:1006E000ED03754601D5164300E096432E60641C69
:1006F0000D682A46E5407FF431AFBDE8F88F000071
:1007000008040140000011100010024000000140E8
:1007100000080140000C014000100140001401409D
:100720008068084000D001207047000001488068C0
:1007300070470000080000200248816802781144D8
:100740008160704708000020074810B5016841F03B
:1007500010010160032000F075F80F2000F006F88A
:1007600000F024F8002010BD0020024070B50D4DAF
:1007700004464FF47A712878B1FBF0F00A49096811
:10078000B1FBF0F000F0DCFA48B9102C07D20022DF
:100790002146501E00F036F800206C6070BD01202C
:1007A00070BD000008000020140000200C4808B5AF
:1007B000816941F001018161816901F001010091CC
:1007C000C16941F08051C161C06900F08050009062
:1007D0000448416821F0E06141F00071416008BDCA
:1007E0000010024000000140002809DB00F01F0259
:1007F000012191404009800000F1E020C0F8001183
:1008000070470000F0B40E4B1B680C46C3F3022384
:10081000C3F10705042D00D90425191D072901D2AC
:10082000002300E0DB1E012606FA05F1491E2140E7
:1008300099409E40761E16403143F0BC00F0E8BE61
:100840000CED00E0064900F0070208684FF6FF03D0
:10085000184040EA0220034A104308607047000035
:100860000CED00E00000FA052DE9F0470F46050009
:1008700061D0434E306800F00700B84209D23068BA
:1008800020F0070038433060306800F00700B842BD
:1008900051D128683B4C810712D5400703D56068C9
:1008A00040F4E06060602878000703D5606840F499
:1008B000605060606068A96820F0F00008436060E4
:1008C0002878C00728D06868012810D0216802283D
:1008D00010D0890700292EDA616821F00301014355
:1008E0006160FFF723FF804641F288390DE02168FF
:1008F0008903EFE78901EDE7FFF718FFA0EB080197
:10090000494502D90320BDE8F0876068696800F0B6
:100910000C00B0EB810FEFD1306800F00700B84257
:100920000BD9306820F0070038433060306800F0A1
:100930000700B84201D00120E5E72878400705D537
:100940006068E96820F4E060084360602878000788
:1009500006D56068296920F4605040EAC1006060F3
:1009600000F038F86168084AC1F30311515CC840CF
:100970000649086006480068FFF7F8FE0020C2E755
:100980000020024000100240DE1600081400002083
:100990000C0000200448054900684968044AC1F376
:1009A0000221515CC8407047140000200010024032
:1009B000EE1600080448054900684968044AC1F376
:1009C000C221515CC8407047140000200010024052
:1009D000EE1600080E4A51680E4801F00C03042B75
:1009E00011D0082B0FD10C48C1F38343C903C05C5D
:1009F0000AD55168084AC1F34041921E515C054A2C
:100A00005043B0FBF1F07047044948437047000081
:100A10000010024000127A00CE16000800093D00C6
:100A20002DE9F84F040070D02078C04DC00749D0A0
:100A30006868C0F38100012807D06868C0F38100AE
:100A4000022809D16868C00306D52868800339D513
:100A500060680028E7D035E06068B0F5803F0BD0D3
:100A600010B1B0F5A02F11D0286820F48030286094
:100A7000286820F4802002E0286840F48030286054
:100A8000606890B1FFF752FE06460AE0286840F41D
:100A900080202860F0E700BFFFF748FE801B642835
:100AA00073D828688003F7D50CE0FFF73FFE0646B1
:100AB00005E000BFFFF73AFE801B6428F0D82868E5
:100AC0008003F7D420789A4E80074FF001094FF049
:100AD000000839D5686810F00C0F07D06868C0F3BB
:100AE0008100022809D16868C00306D428688007FD
:100AF00014D52069012808D110E02069B0B1C6F8EA
:100B00000090FFF713FE074605E00AE1FFF70EFE2F
:100B1000C01B0228C4D828688007F7D528686169F7
:100B200020F0F80040EAC10028600DE0C6F800801F
:100B3000FFF7FCFD074604E0FFF7F8FDC01B0228A5
:100B400023D828688007F7D4207800072CD5794867
:100B5000A169D9B1C0F80090FFF7E8FD074604E0AD
:100B6000FFF7E4FDC01B02280FD8686A8007F7D59D
:100B700071484FF4FA510068B0FBF1F0009000BFEB
:100B80000098411E0091FAD20EE080E0C0F800808B
:100B9000FFF7CCFD074604E0FFF7C8FDC01B0228A5
:100BA00075D8686A8007F7D42078400760D5E8696F
:100BB0000027C00008D4E86940F08050E861E86987
:100BC000012700F0805000905C480168C90513D4EB
:100BD0000168834641F480710160FFF7A7FD8246FA
:100BE00006E000BFFFF7A2FDA0EB0A0064284ED884
:100BF000DBF80000C005F5D5E06801280AD008B18F
:100C0000052813D0286A20F001002862286A20F005
:100C1000040002E0286A40F001002862E06841F226
:100C2000883B98B1FFF782FD82460BE0286A40F0CE
:100C300004002862EEE700BFFFF778FDA0EB0A0191
:100C400059455AD8286A8007F6D50CE0FFF76EFDA3
:100C5000824605E0FFF76AFDA0EB0A0159454CD832
:100C6000286A8007F6D41FB1E86920F08050E86157
:100C7000E06988B36968C1F38101022944D0022880
:100C8000C6F8608004D0FFF751FD044638E034E038
:100C9000FFF74CFD074604E0FFF748FDC01B0228A4
:100CA0002BD828688001F7D4206AB0F5803F05D1A1
:100CB0006868A16820F4003008436860D4E908013E
:100CC0000843696821F4741108436860C6F86090AD
:100CD000FFF72CFD044606E025E000BFFFF726FDE8
:100CE000001B022809D828688001F7D51BE000BF47
:100CF000FFF71CFD001B022802D90320BDE8F88F76
:100D000028688001F4D40EE00128F7D06868226AD0
:100D100000F48031914204D1616A00F4701088427D
:100D200001D00120EAE70020E8E7000000100240BF
:100D30000000424280044242140000200070004043
:100D400010B5401EB0F1807F01D3012010BD4FF0DF
:100D5000E02460610F21601700F05AFC0020A061C0
:100D600007202061002010BD7047704770B590F8D3
:100D70003C20012A26D0012480F83C40022280F841
:100D80003D2003685A689D6822F070060A68324365
:100D90005A600D4B02689A4208D0B2F1804F05D0DC
:100DA0000A4B9A4202D00A4B9A4204D1496825F074
:100DB00080031943916080F83D40002180F83C1089
:100DC000084670BD022070BD002C014000040040A8
:100DD0000008004010B5040003D094F83D0010B1A5
:100DE00007E0012010BD002084F83C00204600F000
:100DF0001FF8022084F83D00211D206800F0DAFA77
:100E0000012084F8460084F83E0084F83F0084F80E
:100E1000400084F8410084F8420084F8430084F8DC
:100E2000440084F8450084F83D00002010BD000017
:100E300008B50068B0F1804F12D10A48C16941F08D
:100E40000101C161C069002200F00100009011465B
:100E50001C20FFF7D7FCBDE808401C20FFF7C4BCEE
:100E600008BD0000001002400168CA6822F00102BB
:100E7000CA6001680A6A41F211131A4207D10A6A6C
:100E80009B101A4203D10A6822F001020A60012174
:100E900080F83D100020704770B5044690F83C0083
:100EA0000025012817D0012684F83C60022084F830
:100EB0003D002068826822F0770222F47F4282603F
:100EC0000868502838D00DDC20284FD005DC90B3BE
:100ED000102811D14AE0022070BD302846D04028A9
:100EE0000AD13BE060282FD070280DD0B0F5805F8C
:100EF00003D0B0F5005F12D0012584F83D600020DA
:100F000084F83C00284670BDCB68D1E901212068F7
:100F100000F08CFA2068816841F0770109E0CB6825
:100F2000D1E90121206800F081FA2068816841F44C
:100F300080418160E1E719E0CA684968206800F0F3
:100F400087FA5021206806E0CA684968206800F0E6
:100F500090FA6021206800F073FACEE7CA68496809
:100F6000206800F075FA40212068F4E72268014605
:100F70001046F0E770472DE9F04104460068C66866
:100F800005694FF00007A90713D5B10711D5F91E60
:100F9000016101202077206880698007204602D007
:100FA000FFF7E8FF04E000F07EF8204600F07CF850
:100FB0002777680716D5700714D521686FF00400ED
:100FC0000861022020772068806910F4407F204665
:100FD00002D0FFF7CFFF04E000F065F8204600F0F4
:100FE00063F82777280715D5300713D521686FF0E8
:100FF00008000861042020772068C0698007204627
:1010000002D0FFF7B7FF04E000F04DF8204600F0F3
:101010004BF82777E80616D5F00614D521686FF04F
:1010200010000861082020772068C06910F4407F14
:10103000204602D0FFF79EFF04E000F034F820467F
:1010400000F032F82777E80708D0F00706D02168CB
:101050006FF001000861204600F028F8280608D546
:10106000300606D521686FF0800008612046FFF742
:101070007BFE680608D5700606D521686FF0400033
:101080000861204600F068F8A8060AD5B00608D521
:1010900021686FF0200008612046BDE8F041FFF7AD
:1010A00064BEBDE8F08170477047000070B5234D05
:1010B000A84218D1224CE078002814D06278214848
:1010C00000264FF400717AB1082A18D8FFF728FBE0
:1010D000A1784908A170002805D041F08000A070D7
:1010E0006078401C607070BDFFF71AFB00BB296878
:1010F0004520C862E860286846620120F2E7FFF7F1
:101100000FFB012814D1A2780C4822700EA1903058
:101110006260FFF75DF809489030FFF705F907496D
:1011200082B290314FF0FF33A1F1480000F088F80F
:10113000E670BDE870400148FFF796BE1800002039
:10114000000000200008014052656365697665640F
:101150003A20256C750D0A00704770B5040004D064
:1011600094F84100002510B106E0012070BD84F81C
:101170004050204600F024F8242084F841002068E4
:10118000C16821F40051C160204600F0ABF920682D
:10119000016921F4904101612068416921F02A012F
:1011A00041612068C16841F40051C160656420203C
:1011B00084F8410084F842006563002070BD00009F
:1011C00030B585B000240094019402940394006823
:1011D000174988422AD11748816941F480418161C9
:1011E000816901F480410491816941F008018161C4
:1011F0008069114D00F0080004904020009002200A
:1012000001900320039069462846FFF799F9802052
:10121000CDE90004694628460294FFF791F9074892
:10122000416841F0E06141F00401416005B030BD2A
:101230000038014000100240000C01400000014055
:101240002DE9F843044690F84100984616460D46AD
:10125000202802D00220BDE8F88385B17EB10020AD
:101260006064212084F84100FFF760FAA68481467B
:10127000E684A0682027B0F5805F02D003E001205B
:10128000E9E7206910B12E4600250EE000260CE0AB
:101290008021204600F082F9A8B9C6B116F8010BEA
:1012A00021684860E08C401EE084E08C4B464FF0A3
:1012B0000002CDF800800028EAD14FF0400120461E
:1012C00000F06CF940B184F841700320C3E735F8B1
:1012D000020BC0F30800E3E784F841700020BAE78E
:1012E000FEE7000010B586B0002416480094019473
:1012F0000294039404944FF080410594C0E90014D3
:101300004521C0E90241802104618161FFF762FD4E
:1013100008B172B6FEE74FF4805000906946094864
:10132000FFF7BAFD08B172B6FEE7049404A90548B8
:101330000594FFF71BFD002801D072B6FEE706B04A
:1013400010BD000018000020FEE7FEE77047704760
:10135000FFF7F2B910B590B028216846FFF703F8FF
:1013600014210AA8FEF7FFFF02200090012004903C
:1013700010200024059007946846FFF751FB08B140
:1013800072B6FEE70F20CDE90A040C940D940021FB
:101390000AA80E94FFF768FA002801D072B6FEE79B
:1013A00010B010BD704700000148FFF7E4BD000019
:1013B00018000020F0B50268194B1A4C1A4D4FF076
:1013C0008047984205D0B84203D0A04201D0A8423D
:1013D00003D122F070064A683243984205D0B842E1
:1013E00003D0A04201D0A84203D122F44074CA68BD
:1013F00022434C6922F08002224302608A68C26262
:101400000A688262984201D1096901630121416140
:101410000169C90703D0016921F001010161F0BD33
:10142000002C0140000400400008004010B5846812
:1014300042EA032224F47F440A432243826010BD1F
:10144000826822F070020A4342F00701816070470F
:1014500010B5036A046A24F001040462846924F06C
:10146000F00444EA021423F00A020A43846102628F
:1014700010BD10B5036A046A24F010040462846984
:1014800023F0A00324F4704444EA023243EA011139
:101490008261016210BD01680C3151E8002F22F415
:1014A000907241E80023002BF5D10168143151E816
:1014B000002F22F0010241E80023002BF5D1016B3F
:1014C000012909D101680C3151E8002F22F01002E6
:1014D00041E80023002BF5D1202180F842100021A3
:1014E0000163704770B5044600680169E26821F441
:1014F0004051114301612169A068084361690843B3
:101500002168CA6841F20C639A430243CA602068AA
:101510004169A26921F44071114341611E4920686B
:10152000884202D1FFF746FA01E0FFF733FA00EBF9
:10153000C00101EB0012606864218000B2FBF0F38F
:10154000B3FBF1F36FF018067343B2FBF0F5B2FB97
:10155000F0F605EB8305322303EB0515B5FBF1F53A
:10156000B6FBF1F605F0F00505EB0615B2FBF0F65B
:10157000B2FBF0F0B0FBF1F06FF01802504306EB55
:10158000800003EB0010B0FBF1F0216800F00F00C9
:101590002844886070BD0000003801402DE9F84300
:1015A000984617460D460446089E24E0701C22D03B
:1015B000FFF7BCF8A0EB0800B0421AD8CEB1206803
:1015C000C168490717D5802D15D0402D13D001686B
:1015D000C94309070FD401680025406800902046E0
:1015E000FFF759FF0820606484F840500120BDE8EF
:1015F000F8830320FBE72068006835EA000004D088
:101600000020B842D2D00020F1E70120F9E7FEE740
:101610000907090E002804DB00F1E02080F800141F
:10162000704700F00F0000F1E02080F8141D7047B3
:1016300086B0FFF789F8FFF78DFE1F48002403945A
:10164000816941F004018161816901F00401049123
:10165000816941F0080181618069694600F00800F4
:1016600004904FF400700090144801900120029003
:101670001348FEF765FF002211461720FFF7C2F856
:101680001720FFF7B1F8FFF72DFE0F480D49016055
:101690004FF4E131C0E901140C21C460C0E90441F8
:1016A0008461C461FFF759FD08B172B6FEE71720E7
:1016B000FFF79AF8FBE7000000100240000011104D
:1016C00000080140003801406000002001020203D0
:1016D0000405060708090A0B0C0D0E0F1010000078
:1016E00000000000000001020304060708090000D2
:1016F0000000010203040000181700080000002089
:101700001800000028010008301700081800002009
:10171000080700004401000800000000000000006D
:1017200001000000100000000000000000127A001C
:04000005080000ED02
:00000001FF
