:020000040800F2
:1000000030070020910100087F1700080D17000835
:100010007D170008B3050008E91A00080000000079
:10002000000000000000000000000000831700082E
:10003000B5050008000000008117000885170008BA
:10004000AB010008AB010008AB010008AB010008E0
:10005000AB010008AB010008AB010008AB010008D0
:10006000AB010008AB010008AB010008AB010008C0
:10007000AB010008AB010008AB010008AB010008B0
:10008000AB010008AB010008AB010008AB010008A0
:10009000AB010008AB010008AB010008AB01000890
:1000A000AB010008DD170008AB010008AB01000838
:1000B000AB010008AB010008AB010008AB01000870
:1000C000AB010008AB010008AB010008AB01000860
:1000D000AB010008DD1A0008AB010008AB01000805
:1000E000AB010008AB010008AB01000800F002F80A
:1000F00000F03FF80AA090E8000C82448344AAF183
:100100000107DA4501D100F034F8AFF2090EBAE880
:100110000F0013F0010F18BFFB1A43F0010318473B
:10012000981A0000B81A0000103A24BF78C878C1A5
:10013000FAD8520724BF30C830C144BF04680C60ED
:10014000704700000023002400250026103A28BF35
:1001500078C1FBD8520728BF30C148BF0B60704739
:10016000642900F07380002070471FB51FBD10B5D3
:1001700010BD00F0E4F91146FFF7F7FF01F0CCFCE9
:1001800000F002FA03B4FFF7F2FF03BC00F00AFA32
:100190000948804709480047FEE7FEE7FEE7FEE71B
:1001A000FEE7FEE7FEE7FEE7FEE7FEE70448054957
:1001B000054A064B70470000D9170008ED000008FB
:1001C00030010020300700203003002030030020E1
:1001D0000FB41CB5084B06AA7B44694600900598ED
:1001E00000F095F904460020694600F0A3F9204686
:1001F0001CBC5DF814FB00005903000070B50446F8
:1002000085690068C10601D5302600E02026C007B8
:1002100007D070BDD4E9012130469047206A401CC8
:1002200020626D1EF6D570BD70B5044685690078F4
:10023000C00707D170BDD4E9012120209047206A72
:10024000401C20626D1EF6D570BD00002DE9F04106
:100250000646002410687529314616A510D0AFF364
:100260000080002802DA404213A507E031688A07BF
:1002700001D512A502E0490704D511A5012401E02A
:10028000AFF3008000210A2206F1240709E0B0FB49
:10029000F2FCB0FBF2F302FB1C003030785418463D
:1002A000491C0028F3D123462A463046BDE8F041D8
:1002B00000F0CEB8000000002D0000002B00000070
:1002C000200000002DE9F05F894604464FF0000A47
:1002D000DFF824B1FB44C0F820A02046E16888473D
:1002E00000287DD0252806D0D4E901219047206A36
:1002F000401C2062F1E700255F462046E168884700
:100300002028064607DB312E05D2B81910F8200C3C
:1003100008B10543F1E7A80701D525F00405C4F8A5
:100320001CA00027C4F818A02A2E09D0304601F0DE
:10033000ECFB38B304EB8708303EC8F8186019E0CE
:1003400059F8041B204604EB87029161E168884755
:10035000012F064618D1E069002820DA25F0200593
:100360001DE0D8F8180000EB800006EB40003038A4
:10037000C8F818002046E1688847064601F0C5FB2A
:100380000028EED1012F0AD02E2E08D12046E16898
:1003900088477F1C0646022F45F02005C4DBA06974
:1003A000002803DA404245F00105A061E80701D0CA
:1003B00025F01005A6B1A6F14100192802D8203673
:1003C00045F400654A463146204625604D46FFF714
:1003D000C7FE60B1012807D0ED1D25F0070000E041
:1003E00007E000F1080978E705F1040975E73046F0
:1003F0007AE7206ABDE8F09FCE1800004FF00002B7
:1004000000B5134694469646203922BFA0E80C500A
:10041000A0E80C50B1F12001BFF4F7AF090728BFE5
:10042000A0E80C5048BF0CC05DF804EB890028BF61
:1004300040F8042B08BF704748BF20F8022B11F08A
:10044000804F18BF00F8012B704770477047704706
:100450002DE9F0470D4699469246044600F12408DE
:100460000168880604D5E06921F01001216000E0F0
:100470000120A84201DD471B00E00027A1697A198D
:1004800002EB0900081AA0612078C00602D42046B9
:10049000FFF7B4FE002608E0D4E901211AF80600AF
:1004A0009047206A401C761C20624E45F4DB207881
:1004B000C0060AD52046FFF7A1FE06E0D4E90121D7
:1004C00030209047206A401C2062381EA7F10107A7
:1004D000F4DC07E0D4E9012118F805009047206A10
:1004E000401C2062281EA5F10105F3DC2046FFF721
:1004F0009BFE2078000602D50220BDE8F08701208F
:10050000FBE7000001694A1C02610878704700B5EA
:100510008FB0CDE901310021059105497944CDE93C
:10052000031011466846FFF7CDFE0FB000BD000076
:10053000E5FFFFFF0A6802F8010B0A607047754685
:1005400000F02CF8AE4605006946534620F007003F
:10055000854618B020B5FFF729FEBDE820404FF0D2
:1005600000064FF000074FF000084FF0000B21F09D
:100570000701AC46ACE8C009ACE8C009ACE8C0096A
:10058000ACE8C0098D46704710B50446AFF3008053
:100590002046BDE81040FFF7F5BD00000048704759
:1005A000CC00002001491820ABBEFEE72600020067
:1005B0007047FEE7704710B590F82110002202291D
:1005C00005D00421816380F82020012010BD01683E
:1005D0000B6823F00E030B6001680B6823F0010326
:1005E0000B6090F84030C46B012101FA03F36360A3
:1005F00080F8211080F82020104610BD10B590F82A
:1006000021100024022903D00421816301243DE04C
:1006100001680A6822F00E020A6001680A6822F086
:1006200001020A601A4A0168914201D1012121E0C8
:10063000174A1432914201D110211BE0144A28328A
:10064000914201D1891515E0114A3C32914201D104
:1006500089140FE00E4A5032914202D14FF480319A
:1006600008E00B4A6432914202D14FF4801101E05C
:100670004FF08071064A083A5160012180F821103C
:10068000002180F82010416B01B18847204610BD41
:10069000080002402DE9F84FDFF8B8910024A9F1D5
:1006A000040B23460F2709F1040AABF1040EC9E03D
:1006B0000125A5402A40AA427DD1674ED1F804C049
:1006C000ACEB0608B44532D014DCBCF1030F3AD0D1
:1006D00009DCBCF1000F2AD0BCF1010F1CD0BCF129
:1006E000020F31D11DE0BCF1110F17D0BCF1120F78
:1006F0002AD119E0B8F5881F19D006DCB8F5803F7B
:1007000015D0B8F5801F1FD111E0B8F5001F0ED02D
:10071000B8F5041F18D10AE0CB6815E0CB681B1DA3
:1007200012E0CB6808330FE0CB680C330CE08B6829
:100730002BB1012B4FF0080303D0456104E00423E3
:1007400002E0056100E00023FF2A01D8064601E02F
:1007500000F104064FEA840501D9A5F12005D6F879
:10076000008007FA05FC28EA0C0803FA05F548EAB8
:100770000508C6F800804D68ED0062D5374DAE69BA
:1007800046F00106AE61AD6924F0030605F00105EF
:100790000095334D06EB050CDCF80850A607360F24
:1007A00007FA06F825EA0805DFF8B880404503D1C6
:1007B0004FF0000817E044E0DFF8AC80404502D17C
:1007C0004FF001080FE0DFF8A480404502D14FF060
:1007D000020808E0DFF89880404502D14FF0030896
:1007E00001E04FF0040808FA06F848EA0508CCF8DA
:1007F00008804D68D9F80060ED024D4601D51643DA
:1008000000E096432E604D68DAF80060AD02554670
:1008100001D5164300E096432E604D68DBF800607A
:10082000AD035D4601D5164300E096432E604D684A
:10083000DEF80060ED03754601D5164300E09643EF
:100840002E60641C0D682A46E5407FF431AFBDE898
:10085000F88F000008040140000011100010024051
:100860000000014000080140000C01400010014060
:100870000014014001488068704700000C0000200F
:100880000248816802781144816070470C000020A2
:10089000074810B5016841F010010160032000F025
:1008A00075F80F2000F006F800F024F8002010BDC5
:1008B0000020024070B50D4D04464FF47A7128783F
:1008C000B1FBF0F00A490968B1FBF0F000F0DCFA86
:1008D00048B9102C07D200222146501E00F036F8ED
:1008E00000206C6070BD012070BD00000C00002075
:1008F000180000200C4808B5816941F001018161B0
:10090000816901F001010091C16941F08051C1612B
:10091000C06900F0805000900448416821F0E06117
:1009200041F00071416008BD00100240000001402C
:10093000002809DB00F01F020121914040098000DE
:1009400000F1E020C0F8001170470000F0B40E4B39
:100950001B680C46C3F30223C3F10705042D00D91D
:100960000425191D072901D2002300E0DB1E012602
:1009700006FA05F1491E214099409E40761E164018
:100980003143F0BC01F0B1B80CED00E0064900F0D5
:10099000070208684FF6FF03184040EA0220034AA6
:1009A00010430860704700000CED00E00000FA05FD
:1009B0002DE9F0470F46050061D0434E306800F046
:1009C0000700B84209D2306820F007003843306091
:1009D000306800F00700B84251D128683B4C8107CD
:1009E00012D5400703D5606840F4E0606060287865
:1009F000000703D5606840F4605060606068A968D3
:100A000020F0F000084360602878C00728D06868AC
:100A1000012810D02168022810D0890700292EDA79
:100A2000616821F0030101436160FFF723FF804605
:100A300041F288390DE021688903EFE78901EDE78C
:100A4000FFF718FFA0EB0801494502D90320BDE8D4
:100A5000F0876068696800F00C00B0EB810FEFD19F
:100A6000306800F00700B8420BD9306820F007006A
:100A700038433060306800F00700B84201D00120F0
:100A8000E5E72878400705D56068E96820F4E0606C
:100A9000084360602878000706D56068296920F45B
:100AA000605040EAC100606000F038F86168084AB0
:100AB000C1F30311515CC84006490860064800684C
:100AC000FFF7F8FE0020C2E70020024000100240BD
:100AD0008E1B000818000020100000200448054963
:100AE00000684968044AC1F30221515CC84070475C
:100AF00018000020001002409E1B00080448054911
:100B000000684968044AC1F3C221515CC84070477B
:100B100018000020001002409E1B00080E4A516879
:100B20000E4801F00C03042B11D0082B0FD10C48F8
:100B3000C1F38343C903C05C0AD55168084AC1F3B5
:100B40004041921E515C054A5043B0FBF1F07047A2
:100B500004494843704700000010024000127A0028
:100B60007E1B000800093D002DE9F84F040070D0FD
:100B70002078C04DC00749D06868C0F381000128C3
:100B800007D06868C0F38100022809D16868C003F3
:100B900006D52868800339D560680028E7D035E09D
:100BA0006068B0F5803F0BD010B1B0F5A02F11D028
:100BB000286820F480302860286820F4802002E033
:100BC000286840F480302860606890B1FFF752FEDA
:100BD00006460AE0286840F480202860F0E700BF5D
:100BE000FFF748FE801B642873D828688003F7D578
:100BF0000CE0FFF73FFE064605E000BFFFF73AFEB8
:100C0000801B6428F0D828688003F7D420789A4E97
:100C100080074FF001094FF0000839D5686810F0DF
:100C20000C0F07D06868C0F38100022809D16868FA
:100C3000C00306D42868800714D52069012808D18C
:100C400010E02069B0B1C6F80090FFF713FE074628
:100C500005E00AE1FFF70EFEC01B0228C4D8286891
:100C60008007F7D52868616920F0F80040EAC100E4
:100C700028600DE0C6F80080FFF7FCFD074604E0A1
:100C8000FFF7F8FDC01B022823D828688007F7D497
:100C9000207800072CD57948A169D9B1C0F8009017
:100CA000FFF7E8FD074604E0FFF7E4FDC01B02285C
:100CB0000FD8686A8007F7D571484FF4FA51006879
:100CC000B0FBF1F0009000BF0098411E0091FAD2F5
:100CD0000EE080E0C0F80080FFF7CCFD074604E09E
:100CE000FFF7C8FDC01B022875D8686A8007F7D4D3
:100CF0002078400760D5E8690027C00008D4E8697B
:100D000040F08050E861E869012700F080500090D1
:100D10005C480168C90513D40168834641F48071B9
:100D20000160FFF7A7FD824606E000BFFFF7A2FDC6
:100D3000A0EB0A0064284ED8DBF80000C005F5D50A
:100D4000E06801280AD008B1052813D0286A20F0ED
:100D500001002862286A20F0040002E0286A40F0BE
:100D600001002862E06841F2883B98B1FFF782FDFC
:100D700082460BE0286A40F004002862EEE700BFDC
:100D8000FFF778FDA0EB0A0159455AD8286A800779
:100D9000F6D50CE0FFF76EFD824605E0FFF76AFD31
:100DA000A0EB0A0159454CD8286A8007F6D41FB138
:100DB000E86920F08050E861E06988B36968C1F3B0
:100DC0008101022944D00228C6F8608004D0FFF7D0
:100DD00051FD044638E034E0FFF74CFD074604E0DF
:100DE000FFF748FDC01B02282BD828688001F7D4E4
:100DF000206AB0F5803F05D16868A16820F4003012
:100E000008436860D4E908010843696821F4741153
:100E100008436860C6F86090FFF72CFD044606E0C2
:100E200025E000BFFFF726FD001B022809D828682F
:100E30008001F7D51BE000BFFFF71CFD001B022857
:100E400002D90320BDE8F88F28688001F4D40EE0B1
:100E50000128F7D06868226A00F48031914204D1F9
:100E6000616A00F47010884201D00120EAE7002096
:100E7000E8E70000001002400000424280044242C5
:100E8000180000200070004010B5401EB0F1807FB7
:100E900001D3012010BD4FF0E02460610F216017E5
:100EA00000F023FE0020A06107202061002010BD7B
:100EB0007047704770B590F83C20012A26D0012475
:100EC00080F83C40022280F83D2003685A689D6803
:100ED00022F070060A6832435A600D4B02689A424B
:100EE00008D0B2F1804F05D00A4B9A4202D00A4B8B
:100EF0009A4204D1496825F080031943916080F833
:100F00003D40002180F83C10084670BD022070BDB5
:100F1000002C0140000400400008004010B504000F
:100F200003D094F83D0010B107E0012010BD00206F
:100F300084F83C00204600F01FF8022084F83D00B1
:100F4000211D206800F050FC012084F8460084F840
:100F50003E0084F83F0084F8400084F8410084F8A3
:100F6000420084F8430084F8440084F8450084F883
:100F70003D00002010BD000008B500680B49884204
:100F800012D10B48816941F40061816180690022BE
:100F900000F40060009011461920FFF7D7FCBDE86F
:100FA00008401920FFF7C4BC08BD0000002C014018
:100FB0000010024090F83D10012901D00120704737
:100FC000022180F83D100168CA6842F00102CA603F
:100FD00000680B49884208D0B0F1804F05D009491C
:100FE000884202D00849884204D1816801F0070193
:100FF000062903D0016841F001010160002070471B
:10100000002C014000040040000800400168CA684C
:1010100022F00102CA6001680A6A41F211131A4201
:1010200007D10A6A9B101A4203D10A6822F0010212
:101030000A60012180F83D100020704770B5044619
:1010400090F83C000025012817D0012684F83C6068
:10105000022084F83D002068826822F0770222F4A2
:101060007F4282600868502838D00DDC20284FD09D
:1010700005DC90B3102811D14AE0022070BD302861
:1010800046D040280AD13BE060282FD070280DD0F0
:10109000B0F5805F03D0B0F5005F12D0012584F871
:1010A0003D60002084F83C00284670BDCB68D1E943
:1010B0000121206800F0D4FB2068816841F07701AD
:1010C00009E0CB68D1E90121206800F0C9FB206864
:1010D000816841F480418160E1E719E0CA684968AC
:1010E000206800F0CFFB5021206806E0CA684968FC
:1010F000206800F0D8FB6021206800F0BBFBCEE741
:10110000CA684968206800F0BDFB40212068F4E708
:10111000226801461046F0E770472DE9F041044689
:101120000068C66805694FF00007A90713D5B10725
:1011300011D5F91E016101202077206880698007A0
:10114000204602D0FFF7E8FF04E000F07EF82046DA
:1011500000F07CF82777680716D5700714D521684A
:101160006FF004000861022020772068806910F485
:10117000407F204602D0FFF7CFFF04E000F065F883
:10118000204600F063F82777280715D5300713D5D8
:1011900021686FF008000861042020772068C0698A
:1011A0008007204602D0FFF7B7FF04E000F04DF8BB
:1011B000204600F04BF82777E80616D5F00614D540
:1011C00021686FF010000861082020772068C0694E
:1011D00010F4407F204602D0FFF79EFF04E000F0AD
:1011E00034F8204600F032F82777E80708D0F007F7
:1011F00006D021686FF001000861204600F028F851
:10120000280608D5300606D521686FF080000861F1
:101210002046FFF74DFE680608D5700606D5216802
:101220006FF040000861204600F062F8A8060AD579
:10123000B00608D521686FF0200008612046BDE89F
:10124000F041FFF736BEBDE8F081704770470000FF
:101250007CB5194988422ED10846FFF7D7FE174CB6
:1012600000256078012815D015A10722D1E90001D9
:10127000CDE9000110486946483000F02DFA25708C
:1012800002B00E49BDE870400B480122891C48306D
:1012900000F0DAB908482379E2780BA12038FEF78C
:1012A00097FF0549C2B22039627101F1680000F070
:1012B00013FA6570E3E77CBD3C00002000000020CD
:1012C0004552524F520D0A00414220253032643AB5
:1012D0002530326420E8A681E5928CE68891E7BB50
:1012E00084E4B990E9989FE59097EFBC9F0D0A00C0
:1012F0007047704770470000F8B5016804460868F9
:10130000CA684B6910F00F0F4FF0000559D003F079
:10131000010602F49077374365D0C10705D0D105A7
:1013200003D5616C41F001016164410705D5D9071E
:1013300003D0616C41F002016164810705D5D907D2
:1013400003D0616C41F004016164010707D502F02C
:101350002001314303D0616C41F008016164616C8C
:1013600000293AD0800604D5900602D5204600F028
:10137000DBFA20684069616CC0F38010090700D473
:1013800060B3204600F0A9FA20684069400621D5E4
:101390002068143050E8001F21F0400140E800129E
:1013A000002AF5D1E06BA8B16D494163E06BFFF70E
:1013B00025F9002811D0E06B416B01B0BDE8F04089
:1013C000084783060FD593060DD52046BDE8F840A3
:1013D00000F0AABA2046FFF78DFFF8BD2046FFF7C0
:1013E00089FF6564F8BD266B2023012E7CD1C606DB
:1013F0007AD5D60678D508684868009048694FF0D5
:101400000206400640D5E16B086840680004000C05
:10141000E8D0A28D8242E5D9E085886920282DD0C8
:1014200020680C3050E8001F21F4807140E8001261
:10143000002AF5D12068143050E8001F21F0010186
:1014400040E80012002AF5D12068143050E8001F4F
:1014500021F0400140E80012002AF5D184F8423022
:10146000256320680C3050E8001F21F0100140E88F
:101470000012002AF5D1E06BFFF79DF86663A08D9E
:10148000E18D401A81B22AE0A08DE18D401A81B22F
:10149000E08D0028A6D00029A4D022680C3252E8A2
:1014A000000F20F4907042E80007002FF5D120686B
:1014B000143050E8002F22F0010240E80027002FEE
:1014C000F5D184F84230256320680C3050E8002FB5
:1014D00022F0100240E80023002BF5D1666320467D
:1014E000FFF707FFF8BDFFE705062BD5150629D541
:1014F00094F841002128F5D1A068B0F5805F01D1B2
:101500002069B0B1206A411C2162216800784860DE
:10151000E08C401E0004000CE084E3D12068C16828
:1015200021F08001C1602068C16841F04001C160C4
:10153000D8E7206A0088C0F308004860206A801C51
:101540002062E5E74006CDD55006CBD5CA682046D7
:1015500022F04002CA6084F8413000F0D6F8C1E7BA
:10156000CB18000870B5040004D094F841000025A1
:1015700010B106E0012070BD84F84050204600F014
:1015800023F8242084F841002068C16821F4005128
:10159000C160204600F02AFA2068016921F49041D8
:1015A00001612068416921F02A0141612068C16818
:1015B00041F40051C1606564202084F8410084F842
:1015C00042006563002070BD30B585B000240094F2
:1015D0000194029403940068184988422CD1184859
:1015E000816941F480418161816901F48041049104
:1015F000816941F0040181618069124D00F00400AD
:1016000004904FF40070009002200190032003909A
:1016100069462846FFF73EF82815CDE900046946DB
:1016200028460294FFF736F8002201212520FFF713
:101630008DF92520FFF77CF905B030BD0038014059
:10164000001002400008014090F84230202B01D0E9
:101650000220704721B11AB10023036300F022BABF
:101660000120704770B51A4988422FD1194CA01D2E
:101670002178052903D8A2784254491C2170C9B2A7
:10168000062914D301780025AA2908D14178BB295D
:1016900005D101790D2902D141790E290FD065704C
:1016A0000B484838FFF786FCC4F806506581BDE852
:1016B000704008490122891C0548FFF7C5BF8178A1
:1016C000E170C078207101206070E9E770BD000012
:1016D000840000200000002090F84130202B01D031
:1016E0000220704779B172B101628284C284002104
:1016F0004164212180F841100068C16841F08001F7
:10170000C16000207047012070477047FEE700006D
:1017100010B586B0002418480094019402940394F4
:10172000049414490594016041F63F71C0E9011425
:10173000C910C0E903148021C0E90541FFF7EEFBA1
:1017400008B172B6FEE74FF48050009069460A482F
:10175000FFF774FC08B172B6FEE7049404A90648CA
:101760000594FFF7A7FB002801D072B6FEE706B08C
:1017700010BD0000002C01403C000020FEE7FEE709
:1017800070477047FFF77CB810B590B028216846C5
:10179000FEF734FE14210AA8FEF730FE0220009066
:1017A0000120049010200024059007946846FFF75C
:1017B000DBF908B172B6FEE70F20CDE90A040C94FC
:1017C0000D9400210AA80E94FFF7F2F8002801D02A
:1017D00072B6FEE710B010BD704700000148FFF779
:1017E0009CBC00003C000020F0B50268194B1A4C6C
:1017F0001A4D4FF08047984205D0B84203D0A0421E
:1018000001D0A84203D122F070064A6832439842C0
:1018100005D0B84203D0A04201D0A84203D122F49F
:101820004074CA6822434C6922F08002224302605D
:101830008A68C2620A688262984201D109690163BA
:10184000012141610169C90703D0016921F001014A
:101850000161F0BD002C0140000400400008004080
:1018600010B5846842EA032224F47F440A432243E9
:10187000826010BD826822F070020A4342F00701C4
:101880008160704710B5036A046A24F001040462A1
:10189000846924F0F00444EA021423F00A020A43A3
:1018A0008461026210BD10B5036A046A24F010045A
:1018B0000462846923F0A00324F4704444EA0232F1
:1018C00043EA01118261016210BD10B5406A002136
:1018D000C185C184FFF70EFD10BD01680C3151E8D0
:1018E000002F22F4907241E80023002BF5D101680B
:1018F000143151E8002F22F0010241E80023002BAF
:10190000F5D1016B012909D101680C3151E8002F93
:1019100022F0100241E80023002BF5D1202180F8AD
:10192000421000210163704708B590F84210222947
:1019300001D0022008BD82684FF480539A4201D141
:10194000016921B1816A9A421BD04AB10AE002685A
:10195000816A5268C2F308020A80816A891C08E021
:10196000026972B10268526802F07F020A70816AED
:10197000491C8162C18D491E0904090CC18503D02F
:101980001BE002685268F1E70168CA6822F0200291
:10199000CA600168CA6822F48072CA6001684A6934
:1019A00022F001024A61202180F8421000214163A7
:1019B000026B012A03D0FFF755FE002008BD01632A
:1019C00001680C3151E8002F22F0100241E8002399
:1019D000002BF5D101680A68D20602D50A68496869
:1019E0000091818DFFF785FCE7E7000070B50446A4
:1019F00000680169E26821F44051114301612169E5
:101A0000A0680843616908432168CA6841F20C6311
:101A10009A430243CA6020684169A26921F4407177
:101A2000114341611E492068884202D1FFF766F8E0
:101A300001E0FFF753F800EBC00101EB0012606812
:101A400064218000B2FBF0F3B3FBF1F36FF01806F2
:101A50007343B2FBF0F5B2FBF0F605EB83053223DE
:101A600003EB0515B5FBF1F5B6FBF1F605F0F00556
:101A700005EB0615B2FBF0F6B2FBF0F0B0FBF1F0AF
:101A80006FF01802504306EB800003EB0010B0FB30
:101A9000F1F0216800F00F002844886070BD00005C
:101AA0000038014081628285C28500214164222183
:101AB00080F84210016921B10168CA6842F480725D
:101AC000CA6001684A6942F001024A610068C1685F
:101AD00041F02001C1600020704700000148FFF77D
:101AE0000BBC000084000020FEE70907090E002857
:101AF00004DB00F1E02080F80014704700F00F00D4
:101B000000F1E02080F8141D704730380A2801D217
:101B1000012070470020704708B5FEF7B9FEFFF7B7
:101B200033FE1248816941F00401816180691049E6
:101B300000F0040000900F480C2201604FF4E131E6
:101B4000416000218160C160C0E904128161C1610E
:101B5000FFF708FD08B172B6FEE7FFF7D9FD0122D5
:101B600005490448FFF770FDFEE700000010024041
:101B7000003801408400002002000020010202031E
:101B80000405060708090A0B0C0D0E0F10100000C3
:101B9000000000000000010203040607080900001D
:101BA000000001020304040000080000000000001F
:101BB0000002000100001000D81B000800000020F7
:101BC0001C00000028010008F41B00081C00002075
:101BD000140700004401000800000000000000009D
:101BE00000000000010000001000000000000000E4
:041BF00000127A0065
:04000005080000ED02
:00000001FF
